:1000000001308A00F52900008C20EC34EE306E10AF
:10001000C432E7327210A53900003C3084008313EB
:100020000008031921280130F800F701F70B162802
:10003000F80B15284A30F700F70B1C281F28800BF7
:1000400013280800430EF039F7000F300605770437
:100050008600000006142C28061008000608F70089
:10006000060E0F39F80008008316061086100611D8
:10007000831286100F3083160605F038860083122F
:1000800006150000061400002E207808C300061094
:100090000000061400002E207808C20006100F3061
:1000A0008316060586008312430EF700F030F7052D
:1000B00077084204F8007808C200C21B3A28401CA6
:1000C0008610401886140000061100000610410E2C
:1000D000C2000F30C2054208C300222041080F3978
:1000E000C200C300222008002830B8000C30B9003C
:1000F0000130BA000630BB000610861006110F3022
:100100008316060586000610861006110F3083122E
:10011000BC000D200130B7003708033C031C9828B1
:100120000330C30022200530BC000D20B70A8C2804
:100130000230C30022200530BC000D20B701370873
:10014000033C031CAF2838303707840083130008B2
:10015000BC00C0013C08C1003420B70A9F288A11A6
:100160000A121B2A3E08F8013D020318BA283D086E
:10017000F700C628F7010830BF00BD0DF70D3E0897
:1001800077020318F700F80DBF0BBD2808003508EB
:1001900084008313361883173D088000840A800189
:1001A000B50A0319B60A08002030381E3030B900ED
:1001B0003708F700B71FE428F709F70A7708B700F0
:1001C0002D30B900B81738143708BD006430BE00B0
:1001D000B2207708B70030307807BA003708BD0082
:1001E0000A30BE00B22030307707BC0030307807CC
:1001F000BB003908F70030303A0203190329B8145C
:10020000B81B381517293908BA002030B90030302A
:100210003B0203190F293814B81BB8141729031D02
:100220003814031D17293A08BB002030BA003819CA
:100230001E29B81821293818242927293908BD0072
:10024000C7203A08BD00C7203B08BD00C7203C08B6
:10025000BD00C7208A110A12252A3D0B30293329F7
:100260004030BE003429BE0101303C02BE073E08CA
:100270008038BF00C0013F08C100342008003B089F
:10028000073A03194D290B3A03195229063A031963
:100290005A29023A0319602965290130BC00BD00C2
:1002A0002D216A29C0010130C10034200230BC0078
:1002B0000D206A290130BC000230BD002D216A29C1
:1002C000C0011030C10034206A290130C0003B0851
:1002D000C100342008000B08B8008B1383160317E5
:1002E0008C170C140000000083120313B81B8B172B
:1002F0000318A22903170C087F390313B80003174A
:100300000D080313B90003170F080313BA003808C8
:10031000BB003F21390803178D0003133A08031768
:100320008F0003130B08BB008B13831603178C1766
:100330000C140000000083120313BB1B8B17B70BB8
:10034000A229C12903170C0D0E0D7F390313B80024
:1003500003170D080313B90003170F080313BA009E
:100360003808BB003F21390803178D0003133A08F2
:1003700003178F008D0A03198F0A03100313B70B9D
:100380006B298A110A123D2A80080319D929B8015C
:100390000408B7003810831B38140008BB003F2145
:1003A00037088400831338188317840A0319850AD1
:1003B000C4298A110A12412A80080319F229B801B6
:1003C0000408B7003810831B381400080C1EE629F7
:1003D000990037088400831338188317840A031997
:1003E000850ADC298A110A124C2A03081F39830066
:1003F000193083169900A630980090308312980027
:10040000B601B50183161F149F141F159F11831386
:100410000912831290010030F80092000030831618
:1004200092001F149F141F159F1183121F10F0308C
:1004300097059D0574280508B400B6012A30B5005B
:100440003408B7001830B800D42820308400831353
:100450008403840A8C1E2A2A1A0880000D300002A8
:10046000031D292A8001043003178D0000308F00FE
:1004700003100E300313B7006B2920308400831360
:10048000C4290430B700FA30BC000D20B70B432A52
:100490002A3084008313DC290D300C1E4D2A99006C
:0C04A0000A300C1E512A99001B2A630030
:02400E00393B3C
:00000001FF
;PIC16F877
;CRC=489B  CREATED="12-Haz-22 01:35"
