:1000000001308A00F52900008C20EC34EE306E10AF
:10001000C432E7327210A53900003C3084008313EB
:100020000008031921280130F800F701F70B162802
:10003000F80B15284A30F700F70B1C281F28800BF7
:1000400013280800430EF039F7000F300605770437
:100050008600000006142C28061008000608F70089
:10006000060E0F39F80008008316061086100611D8
:10007000831286100F3083160605F038860083122F
:1000800006150000061400002E207808C300061094
:100090000000061400002E207808C20006100F3061
:1000A0008316060586008312430EF700F030F7052D
:1000B00077084204F8007808C200C21B3A28401CA6
:1000C0008610401886140000061100000610410E2C
:1000D000C2000F30C2054208C300222041080F3978
:1000E000C200C300222008002830B8000C30B9003C
:1000F0000130BA000630BB000610861006110F3022
:100100008316060586000610861006110F3083122E
:10011000BC000D200130B7003708033C031C9828B1
:100120000330C30022200530BC000D20B70A8C2804
:100130000230C30022200530BC000D20B701370873
:10014000033C031CAF2838303707840083130008B2
:10015000BC00C0013C08C1003420B70A9F288A11A6
:100160000A121B2A3E08F8013D020318BA283D086E
:10017000F700C628F7010830BF00BD0DF70D3E0897
:1001800077020318F700F80DBF0BBD2808003508EB
:1001900084008313361883173D088000840A800189
:1001A000B50A0319B60A08002030381E3030B900ED
:1001B0003708F700B71FE428F709F70A7708B700F0
:1001C0002D30B900B81738143708BD006430BE00B0
:1001D000B2207708B70030307807BA003708BD0082
:1001E0000A30BE00B22030307707BC0030307807CC
:1001F000BB003908F70030303A0203190329B8145C
:10020000B81B381517293908BA002030B90030302A
:100210003B0203190F293814B81BB8141729031D02
:100220003814031D17293A08BB002030BA003819CA
:100230001E29B81821293818242927293908BD0072
:10024000C7203A08BD00C7203B08BD00C7203C08B6
:10025000BD00C7208A110A12252A800803194329E4
:10026000B8010408B7003810831B381400080C1EAE
:100270003729990037088400831338188317840AB4
:100280000319850A2D298A110A12292A3D0B4929A9
:100290004C294030BE004D29BE0101303C02BE0752
:1002A0003E088038BF00C0013F08C100342008006C
:1002B0003B08073A031966290B3A03196B29063ADA
:1002C00003197329023A031979297E290130BC00E8
:1002D000BD0046218329C0010130C1003420023015
:1002E000BC000D2083290130BC000230BD00462136
:1002F0008329C0011030C100342083290130C0009F
:100300003B08C100342008000B08B8008B1383168B
:1003100003178C170C140000000083120313B81B82
:100320008B170318BB2903170C087F390313B80078
:1003300003170D080313B90003170F080313BA00BE
:100340003808BB005821390803178D0003133A08F9
:1003500003178F0003130B08BB008B1383160317BF
:100360008C170C140000000083120313BB1B8B17A7
:10037000B70BBB29DA2903170C0D0E0D7F390313B8
:10038000B80003170D080313B90003170F08031370
:10039000BA003808BB005821390803178D00031331
:1003A0003A0803178F008D0A03198F0A03100313ED
:1003B000B70B84298A110A123B2A80080319F229F3
:1003C000B8010408B7003810831B38140008BB00BC
:1003D000582137088400831338188317840A0319B7
:1003E000850ADD298A110A123F2A03081F39830072
:1003F000193083169900A630980090308312980027
:10040000B601B50183161F149F141F159F11831386
:100410000912831290010030F80092000030831618
:1004200092001F149F141F159F1183121F10F0308C
:1004300097059D0574280508B400B6012A30B5005B
:100440003408B7001830B800D4282A308400831349
:100450002D290D300C1E2A2A99000A300C1E2E2A36
:100460009900043003178D0000308F0003100E3008
:100470000313B7008429203084008313DD2904305E
:10048000B700FA30BC000D20B70B412A20308400A1
:1004900083138403840A8C1E4B2A1A0880000D30B3
:0C04A0000002031D4A2A80011B2A630091
:02400E00393B3C
:00000001FF
;PIC16F877
;CRC=CACC  CREATED="12-Haz-22 01:35"
